S01C00004252535F323936345F50726163746963654653502E737265637A
S31500000000B038FE1FA531000045300000A1310000C8
S31500000010A1310000A1310000A1310000A131000092
S315000000200000000000000000000000006D1300004A
S31500000030A13100000000000085130000E11300005C
S315000000407D250000F126000001280000D1280000CF
S31500000050F12900005D2B0000F92B0000F1290000BA
S31500000060B12C0000B92C000069200000DD1F000043
S31500000070F9200000412100005D1C0000F51C000075
S31500000080CD1D0000B51E00000000000000000000AD
S31500000090000000000000000000000000000000005A
S315000000A0000000000000000000000000000000004A
S315000000B0000000000000000000000000000000003A
S315000000C0000000000000000000000000000000002A
S31500000400FFFFFFFFFFFDFFFFFCFFFFFFFFFFFFFFFB
S31500000410FCFFFFFFFFFFFFFFFCFFFF00FFFFFF00EA
S31500000420FCFF0F20FFFF0F20FCFF7F40FFFF7F40F8
S31500000430FCFF0D40FFFF0D40FFFFFFFF0348044B8D
S31500000440834202D0034B03B118477047C401FE1F15
S31500000450C401FE1F000000000548064B1B1AD90FF9
S3150000046001EBA301491002D0034B03B118477047B3
S31500000470C401FE1FC401FE1F0000000010B5064C9B
S31500000480237843B9FFF7DAFF044B13B10448AFF3FF
S3150000049000800123237010BDE001FE1F0000000054
S315000004A02880000008B5054B1BB105490548AFF388
S315000004B00080BDE80840FFF7CFBF00BF0000000086
S315000004C0E401FE1F288000002DE9F041D0E90285F5
S315000004D00446A8EB0507406897422844154408D807
S315000004E03A460E46A5EB080504F092FE60682A46D9
S315000004F0F11904F08DFEBFF35F8FE560BDE8F08172
S315000005002DE9F8430646D0E90204894617464FF01E
S31500000510000833699C4203F1FF3228BF03F1FF3321
S31500000520A0EB04052ABF1B18131B1B1BBD4228BFCB
S315000005303D469D42706828BF1D4649462A462044CE
S3150000054004F066FEB0682C44A844A9447F1BA04270
S3150000055008BF0024BFF35F8FF460002FD9D1404657
S31500000560BDE8F88310B5154CA8220021204604F0FA
S315000005703AFE03212161124A61611248A2614FF4D9
S315000005808061E061002321620F48A362102163624B
S31500000590E36222666066A1662367E3666367BFF36C
S315000005A05F8F0A4BA3F1100C1846C21A13F9011DEE
S315000005B0A1546345F9D1BFF35F8F10BD0C06FE1F32
S315000005C03C7100000C02FE1FFC01FE1F207900009A
S315000005D02DE9F04FDFF8A89099F80030532B83B03F
S315000005E005460F46144601D0FFF7BCFF05EB450351
S315000005F009EBC3034FEA4508D3F86CB01E6F5E459E
S315000006001FD8ABEB060B5C4528BF5C461CB92046E1
S3150000061003B0BDE8F08FA24608EB050309EBC30360
S315000006203846596E2246314404F0F2FD2644BAF1AA
S31500000630000F04D0A84409EBC808C8F870605446F7
S31500000640E5E79A6E596E0193A2EB060AA24528BF0A
S31500000650A24631445246384604F0DAFD019B9B6EB1
S315000006605644B342A4EB0A0414BFABEB060B0026B8
S315000006705C4528BF5C46002CD9D05744A244CBE742
S315000006800C06FE1F10B50B46EFF311844FF0200148
S3150000069081F311881946FFF79BFF84F3118810BD7B
S315000006A038B5214B00EB400403EBC40E0130DEF8F5
S315000006B02C4000EB4000012C8C46154603EBC00095
S315000006C015D0022C0FD034BBDEF82830DEF82420FB
S315000006D093429CBFDEF820105B18013B9A1A9542A4
S315000006E01CD9204638BDBDE83840FFF709BFDEF803
S315000006F02830DEF82440A3429CBFDEF820105B18A9
S31500000700013B1C1B944228BF144622466146FFF754
S31500000710DBFE204638BD0024204638BD2A46614609
S31500000720FFF7D2FE2C46DCE70C06FE1FF8B50B4B96
S315000007301B78532B04460D46164601D0FFF712FFD1
S31500000740EFF311874FF0200181F3118832462946D5
S315000007502046FFF7A5FF87F31188F8BD0C06FE1F9C
S3150000076010B5064C2378532B01D0FFF7FBFEE36E42
S31500000770206FC01A18BF012010BD00BF0C06FE1F57
S3150000078010B5D0E901320446501C984207D82368B8
S315000007909954E2686368A0600132E26002469A42B8
S315000007A000D010BD21682069FFF7C0FFA3689842FA
S315000007B015BF4FF0FF330023E360A36010BD00BFF9
S315000007C02DE9F84F1546A942DDF828900B9A0F46F9
S315000007D083461E4669D30B464FF00108B3FBF5F37B
S315000007E09D4208F10108F9D9B04538BFB04612F06C
S315000007F0010A02D1B9F1000F3ED1DBF80C30002B13
S3150000080029DB012402E0013E05FB04F4012EFAD89F
S31500000810B7FBF4F39D4205D805FB04F4B7FBF4F3EC
S315000008209D42F9D9224E06E0AC42B4FBF5F30CD357
S315000008301C46B7FBF3F3F156584604FB1377FFF754
S315000008409FFFDBF80C30002BEEDABAF1000F02D076
S31500000850B9F1000F07D1BDE8F88FFFF791FFDBF87C
S315000008600C30002BF7DBC1454FF02001584609F14B
S31500000870FF39F2D8BDE8F88F930711D420240AE097
S31500000880FFF77EFFDBF80C30002B09F1FF39E2DBC6
S31500000890B9F1000FB3D0C14521465846F0D8ACE7B0
S315000008A0002E0CBF30242024F5E74FF001089BE70B
S315000008B0247900002DE9F04F9BB040230DF1280A62
S315000008C0CDE904A30023CDE9073081460C4617463F
S315000008D0069306E004A8FFF753FF079B002BC0F220
S315000008E0AE8014F9011B002900F0A1802529F1D161
S315000008F00026234613F9012BA2F123010D2908D85E
S31500000900DFE801F080070707070707077C0784076A
S315000009100778A2F13001C9B209294FF000050FD8B6
S3150000092005EB850502EB450593F90020A2F13001A0
S31500000930C9B209291C46A5F1300503F10103EFD917
S315000009402E2A00F0018194F900104FF0000B21F0DF
S31500000950040068281C465DD02529BBD05839CBB287
S31500000960202BBAD82029B8D801A353F821F000BF0C
S31500000970470A0000DB080000DB080000DB08000077
S31500000980DB080000DB080000DB080000DB080000D5
S31500000990DB080000DB080000DB080000350B000068
S315000009A0C90A0000DB080000DB080000DB080000C5
S315000009B0DB080000DB080000DB080000DB080000A5
S315000009C0DB080000DB080000DB080000DB08000095
S315000009D0910A0000DB080000DB080000630A000043
S315000009E0DB080000AF0A0000DB080000DB0800009F
S315000009F0470A000046F002061C467AE746F004065F
S31500000A001C4676E746F008061C4672E746F00106E5
S31500000A101C466EE714F9011B21F00403682B9BD1D9
S31500000A2014F9011B21F00403682B95D1F2E7079B0B
S31500000A30002B04DD069C002C40F09F8023441846C2
S31500000A401BB0BDE8F08F3968081D386010220968B0
S31500000A505B46CDE900560DEB0200FFF7B1FE079BA2
S31500000A603CE73B687C4A191D39601D68002D08BFAC
S31500000A70154615F9011B04A800293FF42EAFFFF710
S31500000A807FFE079B002BF4DA18461BB0BDE8F08FFB
S31500000A903A68111D3960116800220823019210225C
S31500000AA000930DEB0200FFF78BFE079B16E73968F4
S31500000AB0081D386009685B46CDE900560A2204A87D
S31500000AC0FFF77EFE079B09E73B68191D39601B6827
S31500000AD003931A4683EAE373A3EBE273092B40F30D
S31500000AE096805E484FF0010819466329A0FB03C3B0
S31500000AF008F101084FEAD303F6DCD84538BFD846DB
S31500000B00002D43D1079800250346002897DB039B59
S31500000B10002B67DB730771D406F00303022B79D031
S31500000B205B46CDE9005603990A2204A8FFF748FE62
S31500000B30079BD3E63B681A1D3A6093F9001004A898
S31500000B40FFF71EFE079BC9E694F90110A1F13002DA
S31500000B50D2B2092A57D81C464FF0000B0BEB8B027A
S31500000B6001EB420214F9011FA1F13003DBB2092B9C
S31500000B70A2F1300BF2D9631CE9E6224651464846FB
S31500000B800393FFF7D3FD039B234458E7039A002AF8
S31500000B9006F002031CDB72071AD4002B53D0BBF1FC
S31500000BA0000F12D0F0070CD50FE004A8FFF7E8FD00
S31500000BB00798002805F1FF350346FFF640AF002DE4
S31500000BC0A3D0A8454FF02001EFD3079803469CE732
S31500000BD0013D13B1BBF1000FF7D0F207F5D4002D9C
S31500000BE0EFD18FE75B422D2104A80393FFF7C8FDE1
S31500000BF0079800280346FFF622AF8DE72B2104A8AD
S31500000C00FFF7BEFDF4E701334FF0000B9FE64FF010
S31500000C10010872E7BBF1000F82D1002D80D0454557
S31500000C204FF0300116D904A8FFF7AAFD079800284F
S31500000C3005F1FF350346FFF602AF002DEFD1002880
S31500000C40FFF6FDAE6CE7F107BBD5079B002BBFF6A1
S31500000C5067AFF4E60346F2E748710000CDCCCCCC92
S31500000C600EB400B582B003AB01AA53F8041B01937E
S31500000C70FFF720FE02B05DF804EB03B0704700BF3B
S31500000C80022800D070470249024801F071BB00BF3C
S31500000C90B8790000C006FE1F08B50E490020FFF710
S31500000CA0DFFF0D490020FFF7DBFF0C490020FFF7AF
S31500000CB0D7FF0B490020FFF7D3FFFFF751FD20B107
S31500000CC000F03CFA08B100F05DF8642003F046FB42
S31500000CD0F3E700BF507100006471000090710000DE
S31500000CE0C471000030B585B000F034F8042303AABF
S31500000CF0CDE900321049114800234FF4FA7203F08F
S31500000D0007F9012805D00E4B0E4A0F48872102F03D
S31500000D1069F900223221044602F0C0FC0B4B05465D
S31500000D200022322120461D6002F0B8FC084B1860F4
S31500000D30012003F013FBFBE7D4710000990C0000BF
S31500000D40DC7100003479000000720000B806FE1F56
S31500000D50B406FE1F08B50649064800F0F9FD00B9BD
S31500000D6008BD054B054A0648272102F03BF900BF9E
S31500000D7084790000C806FE1F1C720000747900000A
S31500000D803072000008B5054800F06EFC00B908BDD9
S31500000D90034B044A0448312102F024F9C806FE1F19
S31500000DA01C72000060790000307200000379012B8C
S31500000DB004BF014A13707047BC06FE1F2DE9F043BD
S31500000DC085B0002300EB01100293ADF80C30002A29
S31500000DD07CD00603C2EB0232414D424F424C02EB3D
S31500000DE006080623002240F2013128468DF8073016
S31500000DF001F0E2F9072301220DEB0301384600F06A
S31500000E007DFD002865D12378002BFCD001224FF010
S31500000E10000940F20131284684F8009001F0CCF92F
S31500000E204FF47A71052002F0E5F8330C4FF0200EEE
S31500000E3040F2013196FA96FC4A4628468DF809306A
S31500000E408DF808E0ADF80AC001F0B6F907230422D0
S31500000E5002A9384600F052FD00283AD12378002B2B
S31500000E60FCD001224FF0000940F20131284684F8F7
S31500000E70009001F0A1F94FF47A714FF4E17002F09D
S31500000E80B9F8042340F201314A4628468DF8063067
S31500000E9001F092F9072301220DF10601384600F010
S31500000EA02DFDB0B92378002BFCD00023012240F29F
S31500000EB001312846237006F6FF7601F07DF94FF4DE
S31500000EC07A71052002F096F846458AD105B0BDE84C
S31500000ED0F083064B064A0748552102F083F800BF07
S31500000EE0C006FE1FC806FE1FBC06FE1F1C720000C1
S31500000EF054790000307200002DE9F04F85B00C46A1
S31500000F00BDF838805B4D5C4F11469A4604EB0213E0
S31500000F104FEA183200EB03160132002320464FEA4F
S31500000F2018290293ADF80C3009F10109FFF746FFC5
S31500000F303602C9EB0929514CB1440623002240F27E
S31500000F40013128468DF8063001F036F907230122D3
S31500000F500DF10601384600F0D1FC002840F08380F0
S31500000F602278002AFCD001224FF0000B40F201311A
S31500000F70284684F800B001F01FF94FF47A71052075
S31500000F8002F038F80223320C40F201318DF80920C4
S31500000F908DF808305A4673BA2846ADF80A3001F083
S31500000FA00BF90723042202A9384600F0A7FC002803
S31500000FB059D12378002BFCD00023B8F5807F23700D
S31500000FC04FF007033ED842465146384600F096FC9D
S31500000FD0002848D12378002BFCD00023237001225F
S31500000FE040F20131284601F0E7F84FF47A71052006
S31500000FF002F000F80423002240F2013128468DF861
S31500001000073001F0D9F8072301220DEB030138461A
S3150000101000F074FC38BB2378002BFCD0002301229F
S3150000102040F2013128462370FF3601F0C5F84FF42F
S315000010307A71052001F0DEFF4E457FF47EAF05B0E4
S31500001040BDE8F08F4FF480725146384600F056FCEA
S3150000105048B92378002BFCD00023A8F580782370AC
S315000010601FFA88F8BBE7064B064A0748552101F0E8
S31500001070B9FF00BFC006FE1FC806FE1FBC06FE1F46
S315000010801C720000547900003072000070B501EB4C
S31500001090021182B000EB0110C0F30F2100228DF87F
S315000010A001108DF8020040F201311D488DF8032031
S315000010B003241D46BDF818608DF8004001F07CF849
S315000010C0184807230422694600F018FCD8B9164CC4
S315000010D02278002AFCD04FF0000C124884F800C099
S315000010E007233246294600F0FDFB90B92378002BF2
S315000010F0FCD00023012240F201310948237001F09F
S315000011005BF802B070BD094B094A0A48552101F047
S3150000111069FF064B084A0748622101F063FF00BFDA
S31500001120C006FE1FC806FE1FBC06FE1F1C7200007E
S31500001130547900003072000048790000F0B50024B0
S3150000114097B00F2202A9204604940294CDF81340CA
S315000011500394FFF797FA054602A803F085FC1E27BD
S315000011603A46214606460EA804F03DF83A46214680
S3150000117006A804F038F86DB3012E41D0022E2CD10A
S315000011800EAB2246214620460097FFF77FFF0EAAA8
S3150000119029492046FFF764FD28492046FFF760FDF0
S315000011A03A4621460EA804F01EF83A46214606A8FD
S315000011B004F019F822490020FFF752FD21490020CA
S315000011C0FFF74EFD20490020FFF74AFD1F4900208A
S315000011D0FFF746FD002017B0F0BD19492046FFF77E
S315000011E03FFD18492046FFF73BFD17492046FFF70C
S315000011F037FD16492046FFF733FD002017B0F0BD36
S3150000120013492046FFF72CFDFFF7AAFA0028FBD06A
S315000012101E2206A90020FFF735FA0028CAD00022B0
S3150000122080B200901146104606ABFFF765FE0949ED
S315000012300020FFF715FDBDE77472000094720000F0
S31500001240507100006471000090710000C4710000CC
S315000012504472000058720000704700BFFFF7FCBFE1
S3150000126000BE704738B5164C4FF0FF31206802F0CB
S31500001270E3FB012803D020680021FFF7F1FF114BA3
S315000012801A7802B138BD01221A70FFF7E7FF0E4D3A
S315000012902B68013B2B60002BF4D0002319462068F5
S315000012A01A4602F041FA01284FF00001F0D02068FA
S315000012B0FFF7D6FF2B68013B2B60002BEDD138BD25
S315000012C0F806FE1FFC06FE1F0007FE1F10B50B4AA0
S315000012D00B4C002301214FF480702360137002F041
S315000012E009FA084B186028B100F018F802F006FF5A
S315000012F0002010BD0146FFF7B3FFF5E7FC06FE1F11
S315000013000007FE1FF806FE1F10B50446FFF7AAFFEA
S315000013102046BDE81040FFF7E5BC00BF10B50D49FB
S315000013200D4C0B6801201A1882B0CDE900040B4B56
S315000013300A600B480B494FF4007202F0E9FD0128E0
S3150000134001D102B010BD2068002102B0BDE81040F6
S31500001350FFF786BF0007FE1F0407FE1FB4790000D3
S3150000136009130000AC72000000BEFEE71EF0040F79
S315000013700CBFEFF30880EFF309800149084700002E
S31500001380051400000D4B1968EFF309821EF0100FCB
S3150000139008BF22ED108A22E9F04F0A604FF01000D4
S315000013A080F31188BFF34F8FBFF36F8F03F014F8EC
S315000013B04FF0000080F3118800F002B82833FE1FBA
S315000013C0064801680A68B2E8F04F1EF0100F08BF21
S315000013D0B2EC108A82F30988704700002833FE1F9A
S315000013E010B5EFF31184102383F3118802F0E4FFA4
S315000013F018B1034B4FF080525A6084F3118810BD28
S3150000140000ED00E008B5836913F8023C022B02D018
S31500001410032B04D808BDBDE80840FFF7D1BF034B36
S31500001420034A044840F2044101F0DCFDB8720000B2
S31500001430407B0000CC72000010B44FF08071074C66
S3150000144040F8041C22F001026FF0020140E9034259
S3150000145040E9091344385DF8044B704769130000EE
S3150000146008B5EFF31181102383F311880A4A136834
S315000014700133012B136000D008BD084A084B1160E8
S315000014805B68C3F30803002BF6D0064B064A0748F1
S315000014904FF49F6101F0A6FD1407FE1F1007FE1F03
S315000014A000ED00E0F4720000187B0000CC72000032
S315000014B008B5094A13683BB1013B13601BB9074BDA
S315000014C01B6883F3118808BD054B064A064840F29F
S315000014D0015101F087FD00BF1407FE1F1007FE1F14
S315000014E03C730000047B0000CC72000080B3194BF3
S315000014F09A8990B2120409D4BFF34F8F30BFBFF35D
S315000015006F8F62B6BFF36F8F72B67047B3F8FE2364
S3150000151092B24AF202514FF0000C42F42542A3F86F
S31500001520FE13A3F80CC0A3F8FE23BFF34F8F30BF02
S31500001530BFF36F8F62B6BFF36F8F72B6B3F8FE2339
S31500001540A3F8FE1392B242F425429881A3F8FE2333
S31500001550704700BF00E0014008B572B602F00EFE0B
S315000015600120FFF7C3FF62B6BDE8084002F00EBED9
S315000015700B4B0C4A1B68A2FB03239B09013BB3F1EF
S31500001580807F0BD24FF0E022074853614FF0F00CFA
S315000015900021072380F823C091611361704700BFC3
S315000015A0F008FE1FD34D621000ED00E010B5264B8B
S315000015B0264C1A78264882B0FF21D2B28DF8032035
S315000015C019701B78DBB20193019B019AC3F30013D8
S315000015D0072112062370016048BF06220BD5019B26
S315000015E05B000193019B1B06114602F1FF32F6D404
S315000015F0032907D00160174B174A184840F2A44147
S3150000160001F0F0FC9DF80330154A0F4C4FF4407181
S315000016100160DBB2F021237082F82210FFF7A8FFE9
S31500001620104A536B43F04043536362B6BFF36F8F68
S31500001630EFF3148C2CF0040C8CF31488BFF36F8F2B
S3150000164002DF00BEFDE700BF00E400E00C07FE1F5E
S315000016500807FE1F507300002C7B0000CC720000B0
S3150000166000ED00E000EF00E010B5002243680260E4
S315000016705A69044622B1936810681B6A98476368E2
S315000016801A6922B1936810681B6A9847636893F9D0
S315000016900220002A0EDB530924480121203302F0E0
S315000016A01F0201FA02F240F82320BFF34F8FBFF367
S315000016B06F8F636893F90120002A0EDB53091B48DC
S315000016C00121203302F01F0201FA02F240F8232022
S315000016D0BFF34F8FBFF36F8F636893F903301348DF
S315000016E059090122203103F01F0302FA03F340F8DF
S315000016F02130BFF34F8FBFF36F8F636893F90430C8
S31500001700590903F01F039A4001F1200340F82320F2
S31500001710BFF34F8FBFF36F8FA268137823F0400398
S315000017201370A3680020DA78D87010BD00E100E0DD
S31500001730F8B504461D46A3689DF818001B7813F0FB
S31500001740400340F09E80C4E90312C4E905330E4607
S315000017506168E56184F820004F69002F2DD00F28BD
S31500001760A5617BD94B695B681B68D978022060F359
S315000017700511D97063685B695B681B6899780220FC
S3150000178060F38301997063685B695B681B68A9B243
S31500001790D98163685B695B681B689A60002A7FD0A1
S315000017A063685B695A68186811689A68536898474D
S315000017B0002852D1616894F820000B69002B30D0C4
S315000017C065610B695B681B680F28DA7850D90221BE
S315000017D061F30512DA7063681B695B681B68DA7867
S315000017E0022161F38302DA7063681B695B681B6818
S315000017F0ADB2DD8163681B695B681B685E60002EA5
S315000018005DD0A268137823F02003137063681B6908
S31500001810D3E901121868096852689047E8B994F844
S315000018202000A168CA7A0B8A0F28D2B29BB22AD9A5
S31500001830013022F040028008053842F02002CA72C8
S3150000184023F47063A26843EA00239BB21382A26862
S31500001850137843F0600300201370F8BD49694968A6
S315000018600728096816D8C87863F30510C87081E799
S3150000187007288ABF012122F0300261F30512DA70CF
S31500001880A9E70820F8BD072894BF42F0400202F0FD
S315000018909F02D4E7CB78012060F30513CB7069E78C
S315000018A063680E485B695B681B68997862F383011D
S315000018B0997063685B695B681B68986070E763682A
S315000018C007491B695B681B68DA7866F38302DA707E
S315000018D063681B695B681B68596092E71C07FE1FFB
S315000018E01807FE1F00B583B0009313460A46002171
S315000018F0FFF71EFF03B05DF804FB00BF00B583B021
S31500001900009313460022FFF713FF03B05DF804FBB4
S3150000191030B5836A85B004468C4601ADABB193E819
S31500001920070085E80700626812781A6083F804C029
S31500001930E26A9A601846626A9047A36A1BB195E804
S31500001940070083E8070005B030BD2B46EBE700BF74
S315000019502DE9F04F0B78DFF800830F691B0283B087
S315000019600D46044698448FB17B681B684FF00062B1
S315000019701A607B681B68C3F80880BB68D7E900015A
S315000019801B6898470646002840F012816B698BB1A8
S315000019905A6812684FF4002111605A681268C2F83A
S315000019A004809A68D3E90001126890470646002829
S315000019B040F002816560AB696362EB690021C4E9AE
S315000019C00A132B7803F5800303F5E4631B02A36077
S315000019D06F7A002F00F0FA80B0208E466B7BEE7A8D
S315000019E02A6A1B0343EA4603AE7A33431678002E6F
S315000019F040F0F1802D780121A940890740F01B8134
S31500001A0092F801C04FEA4C1120EACC1641EA4C018B
S31500001A10907823F070053143D378167998401B01EE
S31500001A201EB1022E0CBF3026202692F805C0BCF14E
S31500001A30000F06D0BCF1010F14BF4EF0010E4EF0A0
S31500001A40030E92F808C00CF0030C43EA8C032B43F8
S31500001A5095790095002F40F0C180957A92F809900B
S31500001A6092F80B80019543F46043EFF3108A012549
S31500001A7085F31088676897F800C0724FCCF1130C95
S31500001A80D7F800B105FA0CFC2BEA0C0BC7F800B12D
S31500001A90D7F800718AF31088D4F808C04FF0000A0E
S31500001AA09CF803708CF803A0A768C9B23970A168C6
S31500001AB0C0B24870A1688E70D179A2689172A2688E
S31500001AC0019982F80C90A2685173A26882F80E8080
S31500001AD0A2685FFA8EFE82F80FE0A2689BB21382BC
S31500001AE0A368009A83F82020626892F90230534571
S31500001AF07ADA554992F90130002B26DB527903F147
S31500001B00604000F561401201D2B280F8002341F82E
S31500001B10234003F1C0004D4A52F8205025F4803589
S31500001B2042F8205052F82020BFF35F8F5A099200E6
S31500001B3002F16042012002F5614203F01F0300FA40
S31500001B4003F3C2F880311360626892F904304048AA
S31500001B50127A3E4DC6181201D2B286F8002341F819
S31500001B60234003F1C00255F8226026F4803645F87A
S31500001B70226055F82220BFF35F8F03F01F055B0933
S31500001B809B0003F1604303F561430122AA40C3F8B9
S31500001B9080211A60636893F90320DB7910441B01E6
S31500001BA0DBB280F800332B4B41F82240002623603D
S31500001BB0304603B0BDE8F08F002FF9D0BB68386817
S31500001BC01B6A9847304603B0BDE8F08FB82008215D
S31500001BD04FF0100E02E741F0B10011E74FF0000898
S31500001BE0CDF80480C14640E7927903F1604101F5E2
S31500001BF061411201D2B281F800231349134A41F818
S31500001C00234003F1C00052F820606AF3104642F800
S31500001C10206052F82020BFF35F8F03F01F025B099C
S31500001C209B0003F1604303F561439540C3F880517F
S31500001C301D6062685EE7B7FA87F1490943EAC11396
S31500001C40DEE600BF006F04406407FE1F0060004030
S31500001C5000E100E0495053520420074010B4EFF36E
S31500001C600383103B5BB203F1C0011F4A52F8210007
S31500001C7020F4803042F8210052F821201B4A52F805
S31500001C802330D3E906218A421DD018699C6848B3DF
S31500001C9093F820100F290ED8072995BF2179A1881E
S31500001CA0815420F81210D96901328A429A610AD009
S31500001CB05DF8044B7047616840F82210D96901321B
S31500001CC08A429A61F4D15B6893F90330084958094E
S31500001CD0012203F01F0302FA03F341F820305DF8F6
S31500001CE0044B70476068DFE7006000406407FE1F32
S31500001CF000E100E010B5EFF30383103B5BB230491F
S31500001D0003F1C00251F8220020F4803041F822008D
S31500001D1051F822202B4A52F823305C68226A72B3AB
S31500001D2092F801C0D8695A69BCF1010F16D08242F7
S31500001D300BD0D3E9020129B193F820400F2C05D925
S31500001D4051F82210416001325A6110BD072C95BF2F
S31500001D50895C31F8121001718180F4E700F1FF3ED1
S31500001D6096450FD021690029E1D094F90320164940
S31500001D70500902F01F020CFA02F241F820205A69BB
S31500001D80D869D4E794F9030000F1C00251F8224063
S31500001D9024F4803441F8224051F82220BFF35F8FAB
S31500001DA04209920002F1604202F5614200F01F0012
S31500001DB00CFA00F0C2F8800110605A69D869B6E7DB
S31500001DC0006000406407FE1F00E100E010B4EFF37E
S31500001DD00383103B5AB202F1C000334951F8204048
S31500001DE024F4803441F8204003F0FF0351F820101A
S31500001DF02E4951F822008168C978890706D54168BD
S31500001E00497A012902D05DF8044B70475209284CE3
S31500001E100121203203F01F0301FA03F344F82230B4
S31500001E20BFF34F8FBFF36F8F436893F90230002BD8
S31500001E300BDB5A0903F01F03994002F1200344F813
S31500001E402310BFF34F8FBFF36F8F8268137823F091
S31500001E5040031370436893F90230002B04DA5DF8EF
S31500001E60044B0121FFF754BD03F1C0010E4A52F89D
S31500001E70214024F4803442F8214052F82120BFF357
S31500001E805F8F5A09920002F16042012102F5614218
S31500001E9003F01F0301FA03F3C2F880311360012136
S31500001EA05DF8044BFFF734BD006000406407FE1F79
S31500001EB000E100E070B5EFF30383103B5CB2334AF8
S31500001EC052F824506B6893F90230002B0DDB5A0947
S31500001ED02F482032012103F01F0301FA03F340F8D3
S31500001EE02230BFF34F8FBFF36F8FAA68137823F0AA
S31500001EF0400313706B6893F90230002B1ADB03F171
S31500001F00C001244A52F8210020F4803042F8210012
S31500001F1052F82120BFF35F8F5A09920002F1604206
S31500001F20012102F5614203F01F0301FA03F3C2F82F
S31500001F3080311360AA68D3780021D1701A07DEB207
S31500001F4011D4F30715D406F01406142E19D0114A2D
S31500001F5004F1C00352F8231021F4803142F8231013
S31500001F6052F8233070BD05212846FFF7D1FCF30750
S31500001F70E9D50421284606F01406FFF7C9FC142EFD
S31500001F80E5D108212846FFF7C3FCE0E76407FE1FFA
S31500001F9000E100E000600040F0B5846A85B00546C7
S31500001FA00F4694466E46B4B194E80F0086E80F00DB
S31500001FB0EB691B782360A76084F804C0EB6AE360D2
S31500001FC020466B6A9847AC6A1CB196E80F0084E815
S31500001FD00F0005B0F0BD3446EAE700BFEFF3038318
S31500001FE0103B5BB203F1C0011D4A52F8210020F4F8
S31500001FF0803042F8210052F821201A4A52F8230074
S31500002000C3691B6983B1036903B17047026A937898
S3150000201003F07F0343F004039370436A0021C16019
S31500002020C3B18022FFF7B8BF0369026A002BEED066
S315000020308378C16803F00303022B0CD00B78D370AE
S31500002040D0E90313827802F003029B1A1144C0E917
S315000020500313D9E770470B8843F47E43D381EFE738
S31500002060006000406407FE1F10B582B0EFF30383E3
S31500002070103B5BB203F1C0011D4A52F8210020F467
S31500002080803042F8210052F821201A4A52F82340A3
S31500002090A27802F00303022B236A0CBF198A59792E
S315000020A0A3690CBFC1F30801C9B2019143B9636AC0
S315000020B0B3B10422204602B0BDE81040FFF76CBF62
S315000020C002F0030201A9606903F0A2F8D4E9052130
S315000020D0A37803F003031A44C91AC4E9052109B118
S315000020E002B010BD636A002BFAD00122E2E700BFFE
S315000020F0006000406407FE1F10B5EFF30383103B3A
S315000021000D4A5CB252F82400026A937803F07B030E
S315000021109370436A1BB102220021FFF73DFF074A75
S3150000212004F1C00352F8231021F4803142F8231041
S3150000213052F8233010BD00BF6407FE1F0060004048
S3150000214010B5EFF30383103B194A5CB252F8240032
S31500002150837803F00303022B036A0CBF198A5979AB
S3150000216093F804C00CBFC1F30801C9B21CF0100FEC
S315000021700CF0380206D093F81CC01CF0010F08BF03
S3150000218042F0400293F804C00CF0C70C83F804C078
S31500002190436A0BB1FFF700FF064A04F1C00352F889
S315000021A0231021F4803142F8231052F8233010BD59
S315000021B06407FE1F0060004010B4CBB201249C40AF
S315000021C0A4B202B924040B0A5B0103F1804303F5B0
S315000021D0802300209C605DF8044B70472DE9F84F82
S315000021E00388DBB1DFF8D88082464FF0000B4FF052
S315000021F00109314D4FEACB070024DAF8043035F8EF
S31500002200022BD919898891420AD00134032CF4D1C2
S31500002210BAF800300BF1010B5B45EAD8BDE8F88F40
S31500002220DB5903F0B85309FA04F6B3F1807FF6B22E
S3150000223098F8BB3413D0334231D1204A04F120013F
S3150000224012F81130DB09E0D012F8113023F08003C8
S3150000225002F81130C820012100F0CCFED5E7334248
S3150000226011D0164A04F1200112F81130DB09CCD145
S3150000227012F8113043F0800302F81130C820012112
S3150000228000F0B8FEC1E7012000F042FF98F8BB3429
S315000022903343012088F8BB3400F00AFFE1E7012050
S315000022A000F036FF98F8BB3423EA0603012088F8CD
S315000022B0BB3400F0FDFEC0E7547B00000040044044
S315000022C000E00140F8B50646FFF788FFEFF31082FD
S315000022D0012383F31088234803681BB92249CB7076
S315000022E04023CB7003680133036082F31088338880
S315000022F023B31E4D002108E01B011344013145F8AC
S31500002300234032888BB29A4218D9736803EBC10214
S3150000231053F831409288E7034FEA1223D2B224F4ED
S31500002320803E02EB031CE7D555F82C7027F4803766
S3150000233045F82C701B0145F82CE0DEE7EFF3108220
S31500002340012383F31088036813B10368013B03601C
S3150000235003681BB904498020CB70C87082F31088CB
S31500002360F8BD00BF6007FE1F000D044000080440D2
S3150000237008B5034B03600846FFF7A4FF002008BD1D
S3150000238054524F5030B5836B83B004460A466D46AF
S31500002390A3B193E8030085E80300E16B19601A71A5
S315000023A01846626B9047A36B1BB195E8030083E860
S315000023B00300002384F82B3003B030BD2B46ECE736
S315000023C00369F0B51F241C7003695F221A70036944
S315000023D0DF221A70036802695B6A1B7943F0E00327
S315000023E01374036802695B6ADB7843F0E003537495
S315000023F0036802695B6A9B781B0103F0700343F074
S3150000240008039370036802695B6A1D785C78012D86
S3150000241014BF0423052343EA4403DBB2D3700368E5
S31500002420524C5B680269524DA34214BF7723F723CF
S31500002430537103694F4C4FF0000C83F806C00369D3
S31500002440B322DA7191F911204B7BA6181B01DBB27E
S3150000245086F8003345F82200474B02F1C00653F8D0
S3150000246026706CF3104743F8267053F82660BFF3C6
S315000024705F8F5609B60006F1604606F561464FF0D5
S31500002480010E02F01F020EFA02F2C6F88021326037
S3150000249091F90F204E7BA7183601F6B287F8006334
S315000024A045F8220002F1C00653F826706CF3104777
S315000024B043F8267053F82660BFF35F8F5609B600BF
S315000024C006F1604606F5614602F01F020EFA02F2B8
S315000024D0C6F88021326091F910204E7BA71836018C
S315000024E0F6B287F8006345F8220002F1C00653F8F9
S315000024F026706CF3104743F8267053F82660BFF336
S315000025005F8F5609B60006F1604606F5614602F091
S315000025101F020EFA02F2C6F88021326091F90E20EF
S31500002520497B14440901C9B284F8001345F8220016
S3150000253002F1C00153F821406CF3104443F82140E6
S3150000254053F82130BFF35F8F53099B0003F16043BB
S3150000255003F5614302F01F020EFA02F2C3F880216E
S315000025601A6003699F221A70F0BD00BF40420F0037
S315000025706407FE1F00E100E00060004010B483B075
S31500002580EFF30383103B5BB2564AC03352F8231075
S3150000259021F4803142F8231052F82330EFF30383FD
S315000025A0103B514A5BB252F8233093F82D20C2B942
S315000025B09A69022A04D819690A7942F040020A7116
S315000025C0DA69012A29D01A69D27CD2B28DF807209D
S315000025D001219DF8072083F82D1003B05DF8044B08
S315000025E07047DA69002AF8D0032A26D0022A5FD07B
S315000025F0012A28D018691A6A5969C07C8854D3E917
S3150000260007210131013AC3E90721002AE5D11969F9
S315000026100B7962F386130B71DFE719690A7942F0C9
S3150000262010020A7119690A7942F008020A711969D9
S315000026300A7922F010020A71C5E719690A7942F08F
S3150000264040020A71D6E793F82A10002940D019688B
S31500002650264C91F90F104809203001F01F0102FAAB
S3150000266001F144F82010BFF34F8FBFF36F8F186945
S31500002670C17941F08001C1711869017941F01001F9
S3150000268001711869017921F0080101711869017950
S3150000269021F01001017119694FF0040C81F801C095
S315000026A01869417921F00101417183F82C20A1E7D5
S315000026B019690A7942F010020A7119690A7942F019
S315000026C008020A7119690A7922F010020A7191E763
S315000026D019694A7A02F0F7024A721A69082050709C
S315000026E088E700BF006000406407FE1F00E100E0CD
S315000026F0EFF30383103B5BB23E4AC03352F823101C
S3150000270021F4803142F8231052F82330EFF303838B
S31500002710103B5BB2384A52F8231091F82730002B51
S3150000272043D191F82930002B3ED1CB69086983BB90
S31500002730C37923F08003C3710869C02201E0013A1E
S3150000274002D0C379DB09FAD10B682A4A93F9103013
S31500002750C03352F8230020F4803042F8230052F8A8
S3150000276023300B6893F91030002B3ADB10B45A096A
S31500002770224C603203F01F03012000FA03F344F8F1
S3150000278022300A69D37943F04003D3715DF8044BD4
S3150000279070470B6A4A69D35C8374D1E90732013208
S315000027A0013BC1E9073213B3704791F82630032B7A
S315000027B00ED00B6991F824209A7491F8282091F88C
S315000027C027300132013B81F8282081F827307047F5
S315000027D091F82830022BECD191F83030002BE3D061
S315000027E0E7E70A69D37943F04003D3717047086974
S315000027F09EE700BF006000406407FE1F00E100E0A6
S3150000280010B4EFF30383103B5BB22E4A52F8232039
S3150000281092F829301BB192F82730012B4DD0D3699D
S31500002820EBB11069C17921F04001C1711169C02372
S3150000283001E0013B02D0CA795206FAD4EFF30383D2
S31500002840103B5BB2204AC03352F8231021F480318A
S3150000285042F8231052F823305DF8044B704792F883
S315000028602A1009B31168194C91F90F104809203044
S315000028704FF0010C01F01F010CFA01F144F8201091
S31500002880BFF34F8FBFF36F8F1069C17941F080019D
S31500002890C1711169042048701069417963F3000120
S315000028A0417182F82CC0BCE711694B7A03F0F7033B
S315000028B04B72136908205870B3E792F83030002B3A
S315000028C0AFD0ACE76407FE1F0060004000E100E007
S315000028D038B5EFF30383103B434A5BB252F823004B
S315000028E00269537A517ADC0601F0E00151725FFA0F
S315000028F083FC03F003022BD503695978490646D4B5
S315000029000024012580F82B50DC710168FFF758FD83
S3150000291090F8263080F8283083690362036980F8CE
S315000029202C40B322C46180F82A402946DA71FFF7A9
S3150000293029FDEFF30383103B5BB22C4AC03352F8F8
S31500002940231021F4803142F8231052F8233038BD89
S31500002950002A47D11CF0080F0ED090F82B30002B20
S315000029602FD190F829100369C1F10301B322C9B22E
S31500002970DA71FFF707FDDCE790F82C30002BD8D092
S315000029801CF0040FD5D090F82B304BBBE9E7002A9A
S31500002990B6D15A78C2F380115206DBD5082280F8E8
S315000029A02B105A7002680369526A1278012A14BF02
S315000029B002220322DA700269537943F0010353714C
S315000029C0B7E78169026990F8264001620023B321C6
S315000029D080F82C30C36180F8284080F82A30D17105
S315000029E00121C6E703698BE76407FE1F006000400C
S315000029F010B582B0EFF30384103C184B184A64B24A
S31500002A0053F824104879135C03F00303032B12D008
S31500002A10C03452F8243023F4803342F8243052F87C
S31500002A2024308B682BB14879CA68CDE90020684606
S31500002A30984702B010BD8B6823B1CA68CDE9002063
S31500002A4068469847C034064B53F8242022F4803257
S31500002A5043F8242053F8243002B010BD6407FE1F4B
S31500002A600060004070B5836984B004468C46164603
S31500002A7001AD9BB193E8070085E8070083F804C021
S31500002A809E60E2691A60184662699047A3691BB1A5
S31500002A9095E8070083E8070004B070BD2B46EDE714
S31500002AA02DE9F0430146EFF30382103A4FFA82FE16
S31500002AB0274C0EF1C00502F0FF0C54F8253023F424
S31500002AC0803344F825304FEA8E0303F1804303F543
S31500002AD0C043D3F800231F4A52F82E004668876881
S31500002AE0367801F1120207EB8202012ED2F8049029
S31500002AF00AD0436933B101314A46C9B2BDE8F04351
S31500002B00FFF7B0BFBDE8F0834FF00048C7F810806C
S31500002B108768C7F814808768C7F818808268002716
S31500002B2057628268976254F8258067F3104844F824
S31500002B302580D3F80033BFF35F8F4FEA5E13064C50
S31500002B400CF01F0C603306FA0CF644F82360D0E74D
S31500002B50006000406407FE1F00E100E070B5EFF37F
S31500002B600382103A51B2214C01F1C00C54F82C30BA
S31500002B7023F4803344F82C308B0003F1804303F5B3
S31500002B80C043D3F800031A4850F82100456895F869
S31500002B9000E0BEF1010F08D043692BB10022BDE869
S31500002BA070401146FFF75EBF70BDD0E90256AE60B9
S31500002BB086680025B5648668F5648668356554F8C8
S31500002BC02C6065F3104644F82C6002F0FF02D3F83F
S31500002BD00033BFF35F8F4B0902F01F0205496033D4
S31500002BE00EFA02F241F82320D6E700BF006000404B
S31500002BF06407FE1F00E100E00020FFF751BF00BFA1
S31500002C00F0B5C76989B005468C460FB3BE46BEE827
S31500002C100F006C460FC49EE80F0084E80F00BCE866
S31500002C200F003E460FC69CE80F008EE80F00AB690A
S31500002C3038469847EB694BB1EE469C46BEE80F0016
S31500002C40ACE80F009EE80F008CE80F0009B0F0BD5D
S31500002C500F46ECE710B5024688B0EFF30383103B4E
S31500002C6011495BB251F82300EFF30383103B5BB2CB
S31500002C700E49C03351F8234024F4803441F82340F0
S31500002C8051F8233041688DF8022083690C88026A66
S31500002C90ADF8004000218DF80810019213B1694685
S31500002CA0FFF7AEFF08B010BD6407FE1F00600040CE
S31500002CB00020FFF7CFBF00BF30B589B0EFF3038424
S31500002CC0103C414B64B253F8240043685A6992F9A8
S31500002CD00620A2422DD00C228DF802201B88ADF8CA
S31500002CE00030036893F8A63003F03F021F2A1BDC6E
S31500002CF08DF80820026892F8AC3023F0010382F8C0
S31500002D00AC308369026A019213B16946FFF778FF16
S31500002D10C0342E4B53F8242022F4803243F824206A
S31500002D2053F8243009B030BD02F00F03033B5AB20A
S31500002D30DEE70B228DF802201A88ADF8002000236A
S31500002D408DF808300568B5F8A020B5F8A2C095F84A
S31500002D50A4104B0792B203EB0C4313441FFA8CFEEC
S31500002D60C9B293FAA3F3F3B1B3FA83FCBCF10F0F24
S31500002D700FDDBCF11C0F5FFA8CF28DF808C017DC72
S31500002D8002F00F02012393402EEA030EA5F8A2E0FB
S31500002D90B7E7012303FA0CF322EA03028DF808C011
S31500002DA0A5F8A020ADE785F8A4108DF80830A8E7AF
S31500002DB002F0030321EA03011D2A85F8A410A0D01E
S31500002DC0203A53B2F1E700BF6407FE1F00600040DF
S31500002DD0064B074993F826001A6A51F82030054930
S31500002DE0C2F30262D3400B60704700BF00E00140AF
S31500002DF0C401FE1FF008FE1F704700BF70B5444BAC
S31500002E00444C4549454A464D4AF20350A3F8FE0351
S31500002E100020A1F800012260424993F82600616073
S31500002E2041494FF40042C4E902214049C4E9042162
S31500002E30196A54F82020C1F30261CA402A60202191
S31500002E40092283F8131483F8A22093F880241AB970
S31500002E5093F88134980756D02D4E96F88034002B7F
S31500002E6046D02B4B002283F8812483F88024284AFD
S31500002E700621002382F8A51082F8323092F83C3001
S31500002E801907FBD500234FF41C51118582F82A300F
S31500002E901F4B93F83C209206FBD51F4A022182F86D
S31500002EA01C1123491962052183F8261093F8261070
S31500002EB054F821001C6AC4F30264E0402860012132
S31500002EC040244FF4254083F8301083F8521083F8DD
S31500002ED0531083F82440A3F8FE03A2F80411B2F8B5
S31500002EE004319BB2002BFAD10123A2F8003170BD48
S31500002EF0012186F88014C82000F07CF896F880340A
S31500002F00012BFBD1ADE74FF47A70FFF775FFAEE703
S31500002F1000E00140C401FE1F00C00140002D310148
S31500002F20F008FE1F00127A00001BB700001C4E0EB0
S31500002F302112012138B5294C002584F82850012199
S31500002F40C82000F057F884F8245094F82430002B59
S31500002F50FBD194F82430214943F0020384F824304D
S31500002F6091F82430C3F340009B07F9D41B4A81F83B
S31500002F70220092F8223003F0FF00002BF9D192F8DC
S31500002F804030164960F3C71382F8403091F840305C
S31500002F90DB09FBD191F84200104A63F3C71081F8B0
S31500002FA0420092F84230DB09FBD192F844000B490B
S31500002FB063F3C71082F8440091F84430C3F3C01499
S31500002FC0DB09F9D1012000F0A3F8054B83F8BB44D7
S31500002FD0BDE83840012000F06BB800BF0040044057
S31500002FE000E0014000BEFEE7A0F101000028FBD191
S31500002FF0704700BF30B400FB01F1104D104A28683D
S31500003000B2FBF0F24FF47A73A1FB03C43CB9BCFBEC
S31500003010F2FC4FEA9C0070B130BCFFF7E5BF9200AE
S31500003020B1FBF2F1A1FB03134FF0FF30002BF3D1FC
S3150000303008460028F0D130BC704700BFF008FE1FDC
S3150000304000CA9A3B70B50C4B0C4EB3F82021B3F86E
S315000030504051ADB20024154025FA04F3DB0704D530
S3150000306056F82430E0B203B198470134102CF3D15E
S31500003070014BA3F8305170BD006000402007FE1FD1
S31500003080094B10B4094C03F1C00C002233F8021F9F
S3150000309002F1C000013209B144F820106345F5D1B0
S315000030A05DF8044B704700BF427A000000600040A4
S315000030B0EFF31081012383F31088124B33F81020AD
S315000030C092B22AB133F81020013A92B223F81020B6
S315000030D033F810309BB293B910B40B4A0B4CB2F8CC
S315000030E0FE3334F810009BB243F4254323EA000371
S315000030F0A2F8FE3381F310885DF8044B704781F324
S3150000310010887047E408FE1F00E001405C7B000069
S3150000311030B4EFF31081012383F310880E4A32F89E
S3150000312010309BB26BB90D4C0D4DB4F8FE3335F82B
S3150000313010C09BB243EA0C0343F425439BB2A4F8A8
S31500003140FE3332F8103001339BB222F8103081F38F
S31500003150108830BC704700BFE408FE1F00E0014045
S315000031605C7B000008B50B4A0346106840B1033388
S31500003170094923F0030303448B4204D8136008BDB6
S3150000318006481060F3E702F03BF80C2303604FF0AB
S31500003190FF3008BDEC08FE1FB034FE1FB034FE1F22
S315000031A000BE704708B500F003F8FEF78FF8FEE79B
S315000031B0234B70B54FF47002224DC3F888200020CF
S315000031C09D60FDF75DFDFFF719FE0120FDF758FD37
S315000031D01D4B1E4800244FF425429C801A80296806
S315000031E01B4DA1F580629A601A4AD9604FF4805649
S315000031F00121A5F82061121A9980214601F0F3FFFA
S315000032001548164A1649174D121A02F001F8164BC0
S315000032105B1BA34206DD9E1055F8043B013498471C
S31500003220A642F9DCFFF7D4FDFFF784FE0220FDF786
S3150000323027FDFFF725FFBDE87040002000F016B817
S3150000324000ED00E000000000000D0040E001FE1F60
S3150000325000600040B034FE1F0000FE1FC401FE1FC8
S31500003260A4800000BC01FE1FC001FE1F704700BF06
S3150000327010B4154B1A461B688342FBD35468416849
S3150000328002EB040C604514D04418A34206D0036038
S31500003290824218BF10605DF8044B70470B4C2468DF
S315000032A0A342F4D05B680B44436013681B68036059
S315000032B0EEE72144501883425160ECD10348006880
S315000032C08342E8D01046EDE70809FE1F0409FE1FF9
S315000032D0F8B5044600F052FF3F480368002B53D070
S315000032E0631E0A334BD814F0070304F108013ED1DC
S315000032F0002944DB394F3E688E4240D3384A146871
S3150000330003E0236823B122461C4663688B42F8D348
S315000033100368A34233D023681568136063685A1A9A
S31500003320102A05F1080507D9601843074DD14260F8
S315000033306160FFF79DFF63682A4A1168F61A8E429C
S31500003340294938BF16600A683E6043F000430020F2
S315000033500132636020600A6000F018FF6B0711D02D
S31500003360224B234A23484FF49771FFF73BFEA3F104
S3150000337009028A4203D31034E11A0029BADC00F0AC
S3150000338005FF00252846F8BD1B4A510719D0D11D57
S3150000339021F0070102F52052531A0A460B44083B56
S315000033A023F007030F4D0E4E03609A1A2A600B4D49
S315000033B031602A6000257560C3E90055C1E9003215
S315000033C08EE711464FF42053E8E70C4B084A0948AC
S315000033D0EE21FFF707FE00BF0409FE1F0009FE1FCE
S315000033E00809FE1FFC08FE1FF808FE1FF073000008
S315000033F0707B0000B07300001009FE1F7C73000094
S3150000340008B338B550F8043C002B0446A0F1080573
S3150000341021DA50F8082CBAB923F0004340F8043CEE
S3150000342000F0ACFE0F4A54F8043C116828460B44E1
S315000034301360FFF71DFF0C4A136801331360BDE8E4
S31500003440384000F0A3BE7047084B094A09484FF4BC
S31500003450A171FFF7C7FD084B054A064840F2411126
S31500003460FFF7C0FD0009FE1FF408FE1FA074000050
S31500003470647B0000B07300002C74000000F10803A8
S315000034804FF0FF310022C0E90131C0E90333026089
S31500003490704700BF00230361704700BF30B40D685A
S315000034A06B1C10D000F108031C465B681A68AA4220
S315000034B0FAD94B6099608C606160086103680133DA
S315000034C030BC0360704704696368F2E7D0E9011213
S315000034D003698A60416851605A68824204BF826803
S315000034E05A60002202611A68013A1A601868704729
S315000034F070B5036C856B044623B316468AB91A4623
S31500003500406801F085FE6368216CA2680B44934213
S31500003510636005F1010516D323686360A563002087
S3150000352070BD1A46C06801F073FE226CE368514212
S315000035309B1A2268E360934202D2A3680B44E360BD
S31500003540022E03D00135A563002070BD012D38BFC2
S315000035500125F8E770B50546FDF782FF95F8453079
S315000035605CB2002C14DD05F1240603E0631EDAB21A
S315000035705CB26AB16B6A304653B100F0CBFF0028EB
S31500003580F4D001F091F8631EDAB25CB2002AF1D1F0
S31500003590FF2385F84530FDF78BFFFDF761FF95F8B2
S315000035A044305CB2002C14DD05F1100603E0631E06
S315000035B0DAB25CB26AB12B69304653B100F0AAFFA9
S315000035C00028F4D001F070F8631EDAB25CB2002A6B
S315000035D0F1D1FF2385F84430BDE87040FDF768BFA0
S315000035E070B5002848D0C56B0446002D3DD0026C4E
S315000035F0A2FB0525002D38D10E46FDF731FFD4E993
S315000036000F232168A56303FB02F2D31A0A44A260C2
S315000036100B44FF2284F844206160E36084F845206F
S31500003620BEB923691BB9FDF743FF012070BD04F144
S31500003630100000F06FFF0028F5D0134B4FF08052BA
S315000036405A60BFF34F8FBFF36F8FFDF731FF012035
S3150000365070BD04F11000FFF711FF04F12400FFF71D
S315000036600DFFFDF725FF012070BD084B084A0948EC
S3150000367040F26311FFF7B6FC074B054A05484FF4C5
S315000036809771FFF7AFFC00BF00ED00E00475000086
S31500003690007C0000D0740000FC74000070B5E0B13E
S315000036A0A1FB00230E460546BBB901FB00F010F155
S315000036B0490F12D84830FFF70BFE044648B156B101
S315000036C000F14803C4E90F56236001212046FFF7A5
S315000036D087FF204670BD0346F4E7034B034A0448C0
S315000036E040F21521FFF77EFC28750000EC7B0000F8
S315000036F0D074000010B548B188420C4606D30222A9
S315000037000021FFF7CBFF00B1846310BD034B044AD1
S31500003710044840F26A31FFF765FC00BF34750000CB
S31500003720CC7B0000D07400002DE9F04184B00192FA
S31500003730002800F0B0800F461E460446002900F01F
S315000037408C80022E03D1E36B012B40F09D8000F0AC
S31500003750B1FF002868D0FDF783FEA26BE36B9A42A7
S3150000376054D3022E52D00020DFF8448105460EE0E5
S31500003770FDF79EFE2046FFF7EDFE00F007FDFDF784
S315000037806FFEA26BE36B9A424FF001003ED3019BA2
S31500003790002B6DD0B0B3FDF78BFE00F0EFFCFDF70C
S315000037A05FFE94F84430FF2B08BF84F8445094F829
S315000037B04530FF2B08BF84F84550FDF779FE01A977
S315000037C002A800F029FF002858D1FDF749FEA26B98
S315000037D0E36B9A42CCD1FDF76BFE019904F1100020
S315000037E000F044FE2046FFF7B5FE00F0CFFC0028AF
S315000037F0C5D14FF08053C8F80430BFF34F8FBFF3E5
S315000038006F8FBCE702A800F0FBFEC4E732463946DC
S315000038102046FFF76DFE636A83B9A8B9FDF748FE37
S31500003820012004B0BDE8F081019B002B93D01D4B15
S315000038301D4A1E4840F28231FFF7D4FB04F12400F2
S3150000384000F068FE0028E9D0194B4FF080525A600C
S31500003850BFF34F8FBFF36F8FE0E7036C002B3FF48E
S3150000386070AF144B104A114840F27E31FFF7BAFB95
S31500003870FDF71EFE002004B0BDE8F0812046FFF7EC
S3150000388069FE00F083FCF5E70B4B074A074840F258
S315000038907F31FFF7A7FB094B034A044840F27D310D
S315000038A0FFF7A0FBE4750000B87B0000D0740000B1
S315000038B000ED00E03C75000094750000FC7400000B
S315000038C0F0B585B00192002800F0A2800E460446AD
S315000038D000296ED000F0EEFE002857D0FDF7C0FD9F
S315000038E0A56B002D6FD1019B002B35D002A800F0EF
S315000038F087FE2F46FDF7DCFD00F040FCFDF7B0FD2E
S3150000390094F84430FF2B08BF84F8447094F845308F
S31500003910FF2B08BF84F84570FDF7CAFD01A902A870
S3150000392000F07AFEE8B9FDF79BFDA36B33BBFDF70C
S31500003930BFFD019904F1240000F098FD2046FFF731
S3150000394009FE00F023FC58B3FDF78AFDA56B002D98
S3150000395039D1019B002BCDD1FDF7AAFD002005B082
S31500003960F0BD2046FFF7F6FD00F010FCFDF778FDF0
S31500003970A36B002BF0D0FDF79BFDE5E7FDF798FD67
S315000039802046FFF7E7FD00F001FCDDE7019B002B79
S31500003990A4D0234B234A244840F2A551FFF722FB2B
S315000039A0224B4FF080525A60BFF34F8FBFF36F8F99
S315000039B0CAE7036C002B8DD01D4B1A4A1A484FF4E8
S315000039C0B461FFF70FFB226C52B1E168A3681144A2
S315000039D09942E16024BF2168E160304601F018FC9D
S315000039E0013DA563236923B9FDF762FD012005B0FA
S315000039F0F0BD04F1100000F08DFD0028F4D00B4B53
S31500003A004FF080525A60BFF34F8FBFF36F8FEBE7D3
S31500003A10084B044A044840F29C51FFF7E3FA00BF02
S31500003A20E4750000A87B0000D074000000ED00E003
S31500003A30C4760000B876000070B584B00191002805
S31500003A4000F09180036C0446002B40F0858000F066
S31500003A5031FE002855D0FDF703FDA56B002D63D17F
S31500003A60019BA3B302A800F0CBFD2E46FDF720FD77
S31500003A7000F084FBFDF7F4FC94F84430FF2B08BFFC
S31500003A8084F8446094F84530FF2B08BF84F84560FD
S31500003A90FDF70EFD01A902A800F0BEFDE0B9FDF795
S31500003AA0DFFCA36B2BBBFDF703FD019904F124009A
S31500003AB000F0DCFC2046FFF74DFD00F067FB50B33D
S31500003AC0FDF7CEFCA56B7DBB019B002BCED1FDF790
S31500003AD0EFFC002004B070BD2046FFF73BFD00F070
S31500003AE055FBFDF7BDFCA36B002BF0D0FDF7E0FC0A
S31500003AF0E6E7FDF7DDFC2046FFF72CFD00F046FB70
S31500003B00DEE7019B002BA6D01A4B1B4A1B4840F24E
S31500003B103761FFF767FA1A4B4FF080525A60BFF3CE
S31500003B204F8FBFF36F8FCBE7013DA563236923B9A1
S31500003B30FDF7BEFC012004B070BD04F1100000F0DA
S31500003B40E9FC0028F4D00E4B4FF080525A60BFF3C8
S31500003B504F8FBFF36F8FEBE70A4B074A074840F2D8
S31500003B603261FFF73FFA084B034A044840F22E61E0
S31500003B70FFF738FAE4750000947B0000D07400006B
S31500003B8000ED00E038760000B876000070B500B3AE
S31500003B90D9B1134D00242A46234604E001330A2BEB
S31500003BA002F108020ED0566886420FD0002CF5D1DD
S31500003BB055F833600133002E08BF14460A2B02F174
S31500003BC00802F0D10CB1C4E9001070BD05EBC304C6
S31500003BD0F9E7044B044A054840F61531FFF702FAA7
S31500003BE01031FE1FC8740000807B0000D0740000F6
S31500003BF070B504460E461546FDF732FC94F844307F
S31500003C00FF2B04BF002384F8443094F84530FF2B83
S31500003C1004BF002384F84530FDF74AFCA36B23B1AB
S31500003C202046BDE87040FFF795BC04F124002A4603
S31500003C30314600F039FC2046BDE87040FFF78ABCEB
S31500003C40F8B5224B224E1D6833680446181D0F46F0
S31500003C50FFF73CFC631C17D033682D195D600BD24F
S31500003C601C4B186831680431FFF718FC1A4B1A68A8
S31500003C70AA4200D91D60F8BD184B18683168BDE826
S31500003C80F8400431FFF70ABC6FB933686A1E5A6000
S31500003C90002DF1D10F4B186831680431FFF7FEFB98
S31500003CA00D4B1B68F8BD0E4B31685A6837688A6041
S31500003CB03068316835681C6801341C609468FC60A3
S31500003CC004300431606091606B61F8BD8431FE1F81
S31500003CD02833FE1FD031FE1F6831FE1FCC31FE1F78
S31500003CE08C31FE1F80B5174D174F184EDFF86080D8
S31500003CF0DFF860A04FF0805914E0FDF7B1FBFB68D8
S31500003D00DC68201DFFF7E2FB3368013B33602B685C
S31500003D10013B2B60FDF7CCFB206BFFF771FB2046C8
S31500003D20FFF76EFB2B68002BE7D1D8F80030012B8C
S31500003D3005D9CAF80490BFF34F8FBFF36F8FFDF715
S31500003D400BFCEFE7A031FE1FA431FE1F8831FE1FDA
S31500003D50FC31FE1F00ED00E02DE9F047604B1968CD
S31500003D6001311960002900F09080DFF89CC1DCF871
S31500003D7000309942C0F081805A4C236818680028A8
S31500003D8000F09A800020584E584ADFF880A1054678
S31500003D9069E09F68D3F80C80D3F814E0C7F8088070
S31500003DA09F68C8F80470DEF8047003F104084745FC
S31500003DB004BFDF68CEF804705D61DEF8009009F19B
S31500003DC0FF39CEF80090D3F828E0BEF1000F16D0E8
S31500003DD0D3E90779C7F80890DF69C9F80470DEF8F7
S31500003DE0047003F118094F4504BF1F6ACEF804702A
S31500003DF09D62DEF8009009F1FF39CEF80090D6F802
S31500003E000090D3F82CE0CE4588BFC6F800E00EEB54
S31500003E108E0E02EB8E0EDEF804E0C3F808E0DEF844
S31500003E200890C3F80C90C9F80480CEF80880D3F83F
S31500003E302CE00EEB8E0E02EB8E08C3F8148052F8BF
S31500003E402E8008F1010842F82E80DAF800E0D4F856
S31500003E500090D3F82C80DEF82CE0D9F80030F0453D
S31500003E6088BF012043B32368DB68DB68D3F804E02E
S31500003E7071458ED2CCF800E000E000201C4B1B6898
S31500003E80002B18BF0120BDE8F087164B1A68126890
S31500003E90FAB9184A1C681068186017481460026856
S31500003EA0013202601A6812685AB9DFF85CC04FF036
S31500003EB0FF33CCF800305AE74FF0FF33CCF8003030
S31500003EC0DCE71B68DFF840C0DB681B68CCF8003015
S31500003ED04DE70A4B0A4A0B4840F6F421FFF782F8F1
S31500003EE08431FE1FD031FE1F8031FE1FFC31FE1FC4
S31500003EF07431FE1FCC31FE1F7031FE1F5477000057
S31500003F00947C0000287700006831FE1F2833FE1FCE
S31500003F102DE9F047950080462846089E8A46994630
S31500003F20FFF7D6F9002800F0848007466020FFF7E7
S31500003F30CFF90446002879D0043D602200213D4493
S31500003F4001F051F9276325F00707BAF1000F0FD0EA
S31500003F500AF1FF3C04F133030AF10F0A1CF9015F71
S31500003F6003F8015F0DB1D445F8D1002384F843303E
S31500003F700E2E00F29980251DE6622846FFF78AFA82
S31500003F80C6F10F0604F11800FFF784FA4B46216BC1
S31500003F90A6612461646242463846FDF74DFA099BE4
S31500003FA0206003B11C60FDF75BFA434A434E136879
S31500003FB0013313603368002B45D0DFF83481E36AA0
S31500003FC0D8F80020002A38D03D4F3E493E480A68BE
S31500003FD001320A6002689A4238BF036003EB83032A
S31500003FE007EB83035B68A3609A68E26055609D6097
S31500003FF0E36A03EB83039A0007EB83036361BB5811
S315000040000133BB50FDF754FAD8F8003063B132687B
S31500004010E36AD26A9A4207D22C4B4FF080525A601A
S31500004020BFF34F8FBFF36F8F012004E03846FFF7D1
S31500004030E7F94FF0FF30BDE8F0873268D26A9A425E
S3150000404098BF3460C0E734601368012B04D0E36A7C
S315000040501B4FDFF89C80B8E7194FB84607F59679ED
S31500004060404608F11408FFF709FAC145F8D1DFF810
S315000040708490DFF884804846FFF700FA4046FFF751
S31500004080FDF91348FFF7FAF91248FFF7F7F9124856
S31500004090FFF7F4F9114BC3F80090114BC3F80080F9
S315000040A0E36ADFF84C8090E70E4B0F4A0F4840F268
S315000040B09631FEF797FF00BF8831FE1F2833FE1F9B
S315000040C0FC31FE1F6C31FE1F8031FE1F00ED00E04B
S315000040D0B831FE1FA431FE1F8C31FE1FD031FE1FEA
S315000040E0CC31FE1FCC770000D87C0000287700007A
S315000040F07C31FE1FE831FE1FD431FE1F30B5154B53
S315000041001549164883B00024CDE900438022234692
S31500004110FFF7FEFE012805D0013014D0104B1B68B6
S3150000412003B030BD00F076FC0128F5D180F310888D
S315000041300C490D4A0D4B4FF0FF350D6010601C60A9
S31500004140FDF734FAEAE70A4B0A4A0B484FF40261D4
S31500004150FEF748FF6431FE1F0C780000E53C0000C6
S31500004160F07C00006831FE1F7C31FE1F8431FE1F8B
S3150000417014780000B87C000028770000024A136813
S3150000418001331360704700BF6031FE1F2DE9F04711
S31500004190644C2368002B00F0BD80FDF761F92368AD
S315000041A0013B23602268002A40F0A7805E4B1B6813
S315000041B0002B00F0A2805D490B68002B00F0A88060
S315000041C05B4E5C4BDFF890A15B4D4FF0010CC8686D
S315000041D0D0F80CE0DEE90770DEF82880B860DEF87B
S315000041E01C704760D8F804000EF11809484504BF52
S315000041F0DEF82000C8F80400CEF82820D8F8000021
S315000042000138C8F80000DEE90270DEF81480B860F4
S31500004210DEF808704760D8F804000EF10409484536
S3150000422004BFDEF80C00C8F80400CEF81420D8F855
S3150000423000000138C8F80000D6F80080DEF82C002F
S31500004240404588BF306000EB800003EB800040688B
S31500004250CEF80800D0F80880CEF80C80C8F8049094
S31500004260C0F80890DEF82C0000EB800003EB800815
S31500004270CEF8148053F8208008F1010843F8208016
S31500004280DAF80000DEF82CE0C06A864588BFC5F87B
S3150000429000C0086800289AD1284B1A681268002ABC
S315000042A031D01A68264BD26812681A60254F3E68CC
S315000042B09EB14FF0010806E0FFF74EFD08B1C5F8C4
S315000042C00080013E08D02368002BF5D03B68013EF4
S315000042D003F101033B60F6D13E602B686BB11A4BCC
S315000042E04FF080525A60BFF34F8FBFF36F8F012498
S315000042F0FDF7DEF82046BDE8F0870024FDF7D8F884
S315000043002046BDE8F0870E4B4FF0FF321A60CDE72E
S31500004310094DCBE70D4B0E4A0E4840F69301FEF7CA
S3150000432061FE00BF6031FE1F8831FE1FB831FE1FDF
S315000043308031FE1FFC31FE1F7431FE1FD031FE1F7F
S315000043406831FE1F7831FE1F00ED00E0287800007E
S31500004350A87C0000287700002833FE1F08B550B15E
S315000043600D4B196881B91A6801321A60FFF768FCAB
S31500004370FFF70CFF38B9094B4FF080525A60BFF374
S315000043804F8FBFF36F8F08BD054B064A06484FF4A3
S31500004390A461FEF727FE00BF6031FE1F00ED00E0BE
S315000043A0E0770000CC7C000028770000014B1868FD
S315000043B0704700BF8431FE1F054B1B680BB9FFF722
S315000043C0CBBC044A1368013300201360704700BF5A
S315000043D06031FE1F7831FE1F1C4B1B681BB11C4B46
S315000043E001221A60704710B5194A1A4C13602368E7
S315000043F0194903EB8302920098008A5842B9EBB13F
S31500004400013B03EB8302980051F82220002AF6D0E4
S31500004410184401EB800C6146DCF804205268CCF8A5
S31500004420042008318A4208BFDCF80C200B4908BF7B
S31500004430CCF80420D2680A60236010BD084B094AF4
S31500004440094840F63341FEF7CDFD00BF6031FE1F3F
S315000044507431FE1F8031FE1FFC31FE1F2833FE1F04
S3150000446054780000807C00002877000010B558B111
S31500004470094B0C4619681831FFF710F82046012140
S31500004480BDE81040FFF7DCBB044B054A054840F683
S315000044904B41FEF7A7FD00BF2833FE1F64780000DE
S315000044A0687C000028770000F8B518B3154C8C46D8
S315000044B02568114600294268EA61034608BF60463E
S315000044C0D4F800C026682568276805F118049568A1
S315000044D0CCF8205006F118066E609460BB621A682C
S315000044E002F101021A60BDE8F84018BF4FF0FF3034
S315000044F0FFF7A6BB044B054A054840F68141FEF787
S3150000450071FD00BF2833FE1F64780000487C000060
S315000045102877000010B5C368DB68002B57D0D3E9B5
S3150000452007019A6A8160D869486051682B4C03F18B
S315000045301800814204BF196A51600021996211680E
S31500004540013911602268AAB1254A5468DC61A16864
S31500004550196248601168A06001319A6211602149B0
S31500004560DA6A0B68DB6A9A4283BF1F4B0120186028
S31500004570002010BDD3E902015A698160986848603D
S3150000458051681A4C181D814204BFD9685160002138
S315000045905961116801391160DA6A21688A42144941
S315000045A088BF226002EB820201EB820252689A60A7
S315000045B09468DC6060609060DA6A02EB82029000C8
S315000045C001EB82025A610A5801320A50C7E7094BC9
S315000045D0094A0A4840F6B141FEF704FD6031FE1F64
S315000045E0B831FE1F2833FE1F7431FE1F8031FE1FB7
S315000045F0FC31FE1F707800002C7C0000287700003C
S31500004600034A044B12681B68C0E90023704700BFC9
S315000046107031FE1F8431FE1FF8B550B30D4679B3D5
S315000046200446FCF71DFF2B68194A591C10681BD05D
S31500004630DFF870C0D4E90061DCF80070BE4208D033
S31500004640814206D800232B600124FCF731FF204667
S31500004650F8BD471ABB42F5D91B1A0B44DCF800100B
S3150000466012682B60C4E900120024FCF721FF2046E3
S31500004670F8BD084B084A094840F62C51FEF7B2FC33
S31500004680074B054A054840F62D51FEF7ABFC00BF27
S315000046908431FE1F80780000147C0000287700001B
S315000046A08C7800007031FE1F014B01221A607047A2
S315000046B07431FE1F054B1B6833B1054B1868B0FA01
S315000046C080F0400940007047012070477C31FE1F92
S315000046D06031FE1FF8B5104CFCF7C2FE25681DB10F
S315000046E0BDE8F840FCF7E4BE0C4F0D4E3846FEF729
S315000046F0C5FE3046FEF7C2FE0A4B1F600A4B2A462D
S315000047000C210A201E60FEF7C9FF20600028E7D0B2
S315000047100649FFF73BFAE3E73433FE1F5433FE1F27
S315000047204033FE1F3C33FE1F3833FE1F9C780000CB
S315000047302DE9F047DFF88880D8F80030DB68DC68C0
S3150000474004F10409054648460F46FEF7BFFE94F8F5
S3150000475024305A070DD423F0010384F82430204670
S31500004760236ABDE8F047184793421CD8236A984746
S315000047703546A3692461EE182CBF01210021B742FA
S315000047802046A7EB05026660EED2AF4201D20029B1
S31500004790ECD0D8F800004946FEF780FE236A204692
S315000047A0BDE8F0471847054B49461868FEF776FE00
S315000047B0236A2046BDE8F047184700BF3833FE1F7E
S315000047C03C33FE1F2DE9F04F8A4D8B4E8B4C8C4FA0
S315000047D0DFF83C8285B02B68D3F800A0BAF1000F51
S315000047E000F0B280DB68D3F800A0FFF7C7FCFFF744
S315000047F0DDFD33688342814640D88245306040F211
S31500004800BE8000222068AAEB0901FFF7F1F9FFF745
S31500004810BDFC38B94FF08053C8F80430BFF34F8F52
S31500004820BFF36F8F2068002201A9FFF749F800281F
S31500004830D1D0019B002BF5DBDDF80C90D9F81430B4
S315000048401BB109F10400FEF741FEFFF7AFFD336827
S315000048509842824624D3019BC6F800A0013B082B50
S31500004860E0D8DFE803F025254950682525495000A2
S31500004870DB684FF0FF311868FFF75AFF2B681A689C
S31500004880002AF5D13A682A603B60C6F80090FFF727
S315000048907DFCC7E7DB684FF0FF311868FFF748FF7C
S315000048A02B681A68002AF5D13A682A603B60D2E77D
S315000048B099F82410029BD9F81820C9F81090981876
S315000048C041F0010C89F824C02CBF4FF0010C4FF0C9
S315000048D0000C5045C9F8040046D8AAEB03039A42D7
S315000048E023D8480756D421F0010189F82410D9F8B5
S315000048F020304846984795E799F8243023F001037D
S3150000490089F824308EE799F82420029BC9F81830DC
S3150000491042F0010289F82420002B64D05344534509
S31500004920C9F80430C9F8109023D8386809F1040191
S31500004930FEF7B4FD76E799F824309A0726D523F0DA
S31500004940010389F824306DE7FFF718FCFFF72EFD09
S3150000495033689842814691D33B68C6F800901A683E
S31500004960B2FA82F252094DE7534502D9BCF1000F63
S31500004970B7D0286809F10401FEF790FD52E7FFF76A
S3150000498005FC49465046FFF7D3FE4BE74846FEF77F
S3150000499037FD47E7029B13440AE0AAEB0303934261
S315000049A01BD3D9F8203048469847D9F818205B46DB
S315000049B013EB020B2CBF01210021DA45C9F804B024
S315000049C0C9F81090E9D29A4501D20029E9D02868A1
S315000049D009F10401FEF762FD89E7386809F104016F
S315000049E0FEF75CFD83E7074B074A08484FF45D7105
S315000049F0FEF7F8FA3C33FE1F2C33FE1F3433FE1F3E
S31500004A003833FE1FD8780000F47C0000AC78000034
S31500004A1000ED00E000B583B0FFF75CFE0B4B1B68B2
S31500004A206BB10B4A0B490C480323CDE90032002336
S31500004A308022FFF76DFA10B103B05DF804FB074B57
S31500004A40074A084840F21911FEF7CCFA3433FE1F24
S31500004A503033FE1F08790000C547000000790000CA
S31500004A60107D0000AC7800000A22002100F07AB820
S31500004A70242B2DE9F0478646904601D8012B06D116
S31500004A8000F0BEFB162303600020BDE8F087344823
S31500004A900D462A4615F8014B065D16F00806F8D1B4
S31500004AA02D2C10D12C780126951C33F0100215D12F
S31500004AB0302C0DD12A7802F0DF02582A08D16C7802
S31500004AC0023510230AE02B2C04BF2C78951CECE74A
S31500004AD0002BF6D1302C14BF0A23082306F1004C14
S31500004AE00CF1FF3C0022BCFBF3F9104603FB19CA8C
S31500004AF0A4F13007092F0FD83C46A3421BDD571CF3
S31500004B0007D0814514D301D1A24511DB00FB034038
S31500004B10012215F8014BEBE7A4F14107192F01D843
S31500004B20373CEAE7A4F16107192F04D8573CE4E7BC
S31500004B304FF0FF32EDE7531C08D12223CEF80030A8
S31500004B406046B8F1000FA0D0691E06E006B14042EB
S31500004B50B8F1000F99D0002AF6D1C8F8001094E7F2
S31500004B60277D000013460A46014602480068FFF703
S31500004B707FBF00BF0000FE1F2DE9FF4757EC106BFB
S31500004B80002F0C4619463B46BBBF07F100431F46A4
S31500004B9000232D230B700D9BDDF830A0914623F0EA
S31500004BA02008BCBF32461646B8F1460F05D0B8F10C
S31500004BB0450F00D10134022100E0032103AB01932C
S31500004BC002AB009347EC106B5346224600F0C0FB45
S31500004BD0B8F1470F054619D119F0010F0ED000EBB9
S31500004BE00409002200233046394602F003FA08B1D0
S31500004BF0CDF80C903022039B4B451ED3039B0E9A97
S31500004C005B1B2846136004B0BDE8F087B8F1460F79
S31500004C1000EB0409E5D10378302B0AD100220023EA
S31500004C203046394602F0E6F918B9C4F10104CAF86B
S31500004C300040DAF800309944D3E7591C03911A7002
S31500004C40D9E7F7B50029BABF49422D232B230929F5
S31500004C500270437029DD0DF107031D460A271A4627
S31500004C60B1FBF7F607FB1614303402F8014C0C467C
S31500004C70632C03F1FF333146F1DC3031941E03F827
S31500004C80011C411C2346AB420AD30DF109039B1AB2
S31500004C90AC4288BF002302330344181A03B0F0BDA8
S31500004CA013F8016B01F8016FEDE7302330318370A3
S31500004CB0C170031DF1E7FFFF2DE9F04F8DB00C46E3
S31500004CC0DDF8588016461F46054600F095FA03683B
S31500004CD00493184600F0AAFA00230A93D8F8003085
S31500004CE00590073323F0070303F1080294F818A090
S31500004CF0D4F800B0C8F80020D3E9008929F00043B1
S31500004D000793CDF81880C4E91289DDE906019C4BAA
S31500004D104FF0FF3202F0A0F970BBDDE90601984BB7
S31500004D204FF0FF3202F07AF930BB002200234046F2
S31500004D30494602F069F910B12D2384F84330914AAF
S31500004D40914BBAF1470F8CBF9046984603232361D7
S31500004D502BF0040323604FF00009009733460BAA9B
S31500004D602146284600F0D2F9013040F08D804FF000
S31500004D70FF300DB0BDE8F08F42464B4640464946EF
S31500004D8002F06AF940B14B46002BBCBF2D2384F8D4
S31500004D9043307E4A7E4BD4E763680AF0DF02069210
S31500004DA05A1C3BD1062363604BF4806200232260C9
S31500004DB003930AABCDE901A309AB0093616849EC03
S31500004DC0108B0DF123032846FFF7D6FE069B0999A3
S31500004DD0472B804629D1C81C02DB6368994241DD16
S31500004DE0AAF1020A5FFA8AFA0139524604F1500022
S31500004DF00991FFF726FF0A9A1318012A81462361B3
S31500004E0002DC2268D20701D5013323619DF82330E5
S31500004E10002BA2D02D2384F843309EE7069A472A1A
S31500004E20C2D1002BC0D10123BDE7BAF1650FDBD992
S31500004E30BAF1660F18D1002963680BDD216113B939
S31500004E402268D00702D501330B442361A1654FF0D8
S31500004E500009DBE713B92268D20701D50233F4E76C
S31500004E600123F2E74FF0670A0A9B994205DB2368A4
S31500004E702161D807EAD54B1CE7E70029D4BFC1F169
S31500004E80020201221344E0E723685A0507D4236986
S31500004E90424631462846B84701302BD167E7BAF17A
S31500004EA0650F40F2DD80D4E912010022002302F0F2
S31500004EB0A1F8002833D0374A012331462846B8479F
S31500004EC001303FF454AFDDE90938434502DB23687E
S31500004ED0D8070FD5DDE9042331462846B847013007
S31500004EE03FF445AF4FF0000908F1FF3804F11A0A04
S31500004EF0C84509DC23689B0700F10381E0680B9B2A
S31500004F009842B8BF184634E7012352463146284630
S31500004F10B84701303FF42BAF09F10109E8E7099BD7
S31500004F20002B39DC1B4A012331462846B84701309D
S31500004F303FF41DAFDDE9093959EA030302D12368BD
S31500004F40D907D7D5DDE9042331462846B8470130CD
S31500004F503FF40DAF4FF0000A04F11A0B099B5B42B8
S31500004F60534501DC4B4693E701235A463146284612
S31500004F70B84701303FF4FBAE0AF1010AEEE700BF85
S31500004F80FFFFEF7F2B7E0000277E0000337E0000B0
S31500004F902F7E0000377E0000A36DDDF828A0534564
S31500004FA0A8BF5346002B994636DC4FF0000B29EA82
S31500004FB0E97904F11A02A36D0693A3EB09035B4595
S31500004FC031DC099B9A453ADC2368DA0737D4099B1A
S31500004FD0AAEB0309069BAAEB03039945A8BF9946CA
S31500004FE0B9F1000F33DC4FF0000829EAE97904F142
S31500004FF01A0B099BAAEB0303A3EB090343457FF7AF
S3150000500079AF01235A4631462846B84701303FF466
S31500005010AEAE08F10108ECE7424631462846B847ED
S315000050200130C2D1A3E60123314628460692B8478D
S3150000503001303FF49CAE069A0BF1010BBBE7DDE9AC
S31500005040042331462846B8470130C0D18FE6069A78
S315000050504B46424431462846B8470130C3D186E61E
S31500005060DDF828A0BAF1010F01DCDB0736D50123F4
S31500005070424631462846B84701303FF478AEDDE96E
S31500005080042331462846B84701303FF470AED4E9D0
S315000050901201002200230AF1FF3A01F0ABFFC0B96A
S315000050A0534608F1010231462846B84701300CD173
S315000050B05DE601235A4631462846B84701303FF49B
S315000050C056AE08F10108D045F3DB4B4604F1500219
S315000050D0DFE64FF0000804F11A0BF4E7012342461D
S315000050E0E1E701234A4631462846B84701303FF4F6
S315000050F03EAE08F10108E3680B995B1A4345F0DC04
S31500005100FCE64FF0000804F11909F4E72DE9F04731
S31500005110164698468A680B69DDF820909342B8BF18
S315000051201346336091F8432007460C460AB1013313
S3150000513033602368990642BF3368023333602568BB
S3150000514015F0060506D104F1190AE36832689B1AC0
S31500005150AB4226DC94F843302268003B18BF01239B
S3150000516092062BD404F1430241463846C847013023
S315000051701ED02368226903F00603042B02BFE568EC
S315000051803368ED1AA3680CBF25EAE575002593423E
S31500005190C4BF9B1AED1800261A34B5421AD1002056
S315000051A008E00123524641463846C847013003D13C
S315000051B04FF0FF30BDE8F0870135C6E7E1185A1C0D
S315000051C0302081F84300224494F8451082F84310B9
S315000051D00233C7E70123224641463846C847013015
S315000051E0E6D00136D9E702440346934200D1704720
S315000051F003F8011BF9E7FFFF004870474001FE1F57
S31500005200014B1868704700BF0000FE1F70477047CB
S315000052100A44914200F1FF3300D1704710B511F8EE
S31500005220014B03F8014F9142F9D110BD034613F823
S31500005230012B002AFBD1181A013870472DE9F74FC8
S3150000524003690C69A34207467EDB013C01F11408A1
S31500005250A30000F11405009305EB8403019358F8AD
S31500005260243055F8242001339A4208EB8409B2FB16
S31500005270F3F62ED34FF0000AC446AE46D3465CF88A
S31500005280043B98B206FB00A0020C1B0C06FB032392
S31500005290DEF8002080B292B2121A5A44DEF80000FC
S315000052A04FEA134A9BB2C3EB224303EB104392B27D
S315000052B042EA0342E1454EF8042B4FEA234BDED285
S315000052C0009BEB582BB9019B043B9D421A462FD3FA
S315000052D03C61384601F01EF9002825DB29460020EE
S315000052E058F8042BD1F800C01FFA82FE1FFA8CF37F
S315000052F0A3EB0E030344120CC2EB234202EB1C4247
S315000053009BB243EA0243C14541F8043B4FEA2240BF
S31500005310E6D255F8242005EB840322B9043B9D42CE
S315000053201A460BD33C610136304603B0BDE8F08F18
S315000053301268043B002ACBD1013CC6E71268043B45
S31500005340002AEFD1013CEAE70020EEE7FFFFFFFF6E
S315000053502DE9F04FC76999B08DED040B55EC104B54
S31500005360229E099183460E9213937FB9102000F076
S31500005370A9FD0246CBF81C0020B9A54BEF21A54894
S31500005380FDF730FEC0E901770760C760DBF81C3027
S31500005390196859B15A684A60012393408B60584690
S315000053A000F086FEDBF81C3000221A602B1EB9BF07
S315000053B023F00043059300233360059F964BBCBF43
S315000053C001223260BB4312D1139A42F20F7313606B
S315000053D0C7F31303234300F04385239BDFF84CA256
S315000053E0002B00F045850AF1030300F03FBD9DED5B
S315000053F0047B002251EC170B00238DED0C7B01F092
S31500005400F9FD804658B1139A01231360239B13B10B
S31500005410239A824B1360DFF818A200F029BD9DED98
S315000054200C0B16AA17A9584601F024F9C7F30A5619
S315000054308146002E77D00D9BCDF85080C3F3130321
S31500005440DDE90C0143F07F5343F44013A6F2FF3627
S3150000545019460022724B01F0ADF967A3D3E9002388
S3150000546001F060FB66A3D3E9002301F0A5F9044629
S3150000547030460D4601F0ECFA63A3D3E9002301F0B0
S3150000548051FB02460B462046294601F095F9044693
S315000054900D4601F0F7FD0022074600232046294667
S315000054A001F0B2FD40B1384601F0D2FA22462B4651
S315000054B001F0A0FD00B9013F162F51D8594B03EB5F
S315000054C0C703D3E90023DDE90C0101F09DFD0028A7
S315000054D048D0013F00231293169B9B1B5A1E44BFC4
S315000054E0C3F101080023089254BF4FF00008089347
S315000054F0002F39DB089B0F973B44089300230A9340
S31500005500099B092B61D8052BC4BF043B0993099B52
S31500005510A3F10203CCBF00240124032B61D8DFE8EA
S3150000552003F05052352ADDE916631E4406F2324373
S31500005530202BC1BFC3F140039F4006F2124324FA59
S3150000554003F3D6BFC3F1200347EA030004FA03F0CE
S3150000555001F06EFA0122A1F1F873013E149277E789
S315000055600123B8E71290B7E77B420A930023A8EB22
S3150000557007080F93C4E701230B930E9BFB180093B8
S315000055800133012B0393B8BF012306E001230B93DC
S315000055900E9B002B28DD00930393DBF81C000021F3
S315000055A0042202F114059D4223D94160584600F0B9
S315000055B03FFD824600283DD11B4B024640F2AF110B
S315000055C0DDE60023E3E70023D6E701240023099361
S315000055D00B944FF0FF3300930393002212230E9295
S315000055E0DBE701230B93F4E70123009303931A46A9
S315000055F0F5E701315200D4E761436F63A787D23FD5
S31500005600B3C8608B288AC63FFB799F501344D33FAB
S31500005610467E00005D7E00000000F07F387E0000C0
S315000056200000F83F607F0000B67E0000427E00006A
S31500005630377E0000DBF81C301860039B0E2B00F24F
S31500005640A180002C00F09E80002F33DD9C4B07F0DC
S315000056500F0203EBC20393ED007BF8058DED067B8D
S315000056604FEA271416D5974BDDE90C01D3E9082339
S3150000567001F082FBCDE9040104F00F040326914DED
S3150000568054B9DDE90623DDE9040101F075FBCDE936
S31500005690040128E00226F2E7E10708D5DDE9060164
S315000056A0D5E9002301F03EFACDE906010136641082
S315000056B00835E5E700F0AF807C42814B814D04F070
S315000056C00F0203EBC203D3E90023DDE90C0101F06D
S315000056D029FACDE90401241100230226002C40F00A
S315000056E08F80002BD3D1129BDDE90445002B00F0FF
S315000056F09480754B00222046294601F085FC00283F
S3150000570000F08B80039B002B00F08780009B002B12
S3150000571034DD7B1E069320466C4B0022294601F0A1
S3150000572001FACDE90401009C0136304601F090F9FA
S31500005730DDE9042301F0F6F9654B002201F03CF89F
S315000057400546A1F15076002C6AD1DDE90401614BD2
S31500005750002201F02FF802460B46CDE904232A4623
S31500005760334601F06FFC002840F08782DDE9040132
S315000057702A4606F1004301F047FC38BBDDE90C344C
S31500005780CDE90434179B002BC0F258810E2F00F38D
S3150000579055814B4B03EBC70393ED007B0E9B002B10
S315000057A08DED007B80F2E580039B002B00F3E1800A
S315000057B00CD1484B002251EC170B01F0B3F9DDE98F
S315000057C0042301F035FC002800F05582002425460C
S315000057D00E9BDB430693564600272146584600F0AB
S315000057E067FC002D00F0BD802FB1AF4203D03946D3
S315000057F0584600F05DFC2946584600F059FCB0E0DA
S31500005800E20705D5D5E9002301F08CF9013601231D
S315000058106410083562E7022665E7039C069784E76D
S31500005820274B0B9903EBC40353E902235444002985
